:020000040800F2
:100000005809002049010008FB080008990700086A
:10001000F9080008BD0100081B14000800000000DA
:100020000000000000000000000000007D0E00083D
:100030003306000800000000AD0B00082D1000087A
:100040006301000863010008630100086301000800
:1000500063010008630100086301000863010008F0
:1000600063010008630100086301000863010008E0
:1000700063010008630100086301000863010008D0
:1000800063010008630100086301000863010008C0
:1000900063010008630100086301000863010008B0
:1000A00063010008630100086301000863010008A0
:1000B0008110000863010008630100086301000863
:1000C0006301000863010008630100086301000880
:1000D00063010008ED1100086301000863010008D6
:1000E0006301000863010008630100086301000860
:1000F0006301000863010008630100086301000850
:100100006301000863010008B510000863010008DE
:10011000630100086301000863010008630100082F
:10012000630100086301000863010008630100081F
:10013000DFF810D000F030F80048004749190008F7
:10014000AFF3008058090020064880470648004762
:10015000FEE7FEE7FEE7FEE7FEE7FEE7FEE7FEE777
:10016000FEE7FEE7311000083101000830B50B460C
:10017000014600202022012409E021FA02F59D42D7
:1001800005D303FA02F5491B04FA02F52844151EAB
:10019000A2F10102F1DC30BD064C074D06E0E0683B
:1001A00040F0010394E8070098471034AC42F6D3BE
:1001B000FFF7C2FF8C240008AC240008FEE7000013
:1001C00001490020487070472000002001490020AC
:1001D000087070472000002038B50121042000F08D
:1001E00033FD0121102000F02FFD0220ADF80000AA
:1001F00048248DF803400C4D6946284600F05CFA0F
:100200000421ADF800108DF803406946284600F03F
:1002100053FA0120ADF800008DF803406946034809
:1002200000F04AFA38BD000000100140000801400B
:10023000F8B50121102000F007FD1024ADF80040B2
:1002400003258DF802508DF803400D4E6946304667
:1002500000F032FA01221021304600F08BFA202102
:10026000ADF800108DF802508DF803406946304615
:1002700000F022FA00222021304600F07BFAF8BD7F
:10028000001001404FF4A06000F076BBF8B50121EA
:10029000082000F0D9FC0121102000F0D5FC4FF41B
:1002A0000056ADF8006010248DF8034003258DF84A
:1002B0000250234F6946384600F0FEF93146384671
:1002C00000F056FAE602ADF800608DF803408DF8B4
:1002D00002506946384600F0EFF93146384600F0E2
:1002E00047FAA602ADF800608DF803408DF8025081
:1002F0006946384600F0E0F93146384600F038FAF1
:100300002602ADF800608DF803408DF80250694672
:10031000384600F0D1F93146384600F029FA082075
:10032000ADF800008DF803408DF80250054C694689
:10033000204600F0C1F90821204600F019FAF8BD66
:10034000000C01400010014010B50021AE2000F06B
:10035000E7FB0021D52000F0E3FB0021502000F056
:10036000DFFB0021A82000F0DBFB00213F2000F094
:10037000D7FB0021D32000F0D3FB0021084600F07A
:10038000CFFB0021402000F0CBFB00218D2000F0AE
:10039000C7FB0021142000F0C3FB0021202000F047
:1003A000BFFB0021022000F0BBFB0021A12000F0D8
:1003B000B7FB0021C02000F0B3FB0021DA2000F0E1
:1003C000AFFB0021122000F0ABFB0021812000F0E8
:1003D000A7FB0021EF2000F0A3FB0021D92000F0B3
:1003E0009FFB0021F12000F09BFB0021DB2000F0AF
:1003F00097FB0021302000F093FB0021A42000F0A7
:100400008FFB0021A62000F08BFB0021BDE81040EF
:10041000AF2000F085BB10B500F024FC4FF4803411
:10042000204600F0BFFC00F007FD012822D110207B
:1004300000F02CF9022000F035F9002000F0A8FCB3
:10044000002000F0D5FCA01100F0C8FC4FF4E01132
:10045000204600F0DDFC012000F0D4FC392000F043
:1004600077FC0028FAD0022000F0DCFC00F088FCC9
:100470000828FBD110BD7FB504460D460121084672
:1004800000F0D4FBADF80840ADF804500024ADF8FE
:100490000A40ADF806404FF0804501A9284600F01B
:1004A0004DFE01221146284600F03DFE1C218DF82C
:1004B00000108DF8014003218DF8021001218DF804
:1004C0000310684600F026FA0121284600F013FECA
:1004D0007FBD00007FB504460D460121082000F0D5
:1004E000A5FBADF80840ADF804500024ADF80A4073
:1004F000ADF806400E4D01A9284600F01FFE01226E
:100500001146284600F00FFE32218DF800108DF8BC
:10051000014003218DF8021001218DF80310684677
:1005200000F0F8F90121284600F0E5FD7FBD00004C
:10053000000C004030B587B004460121880300F06C
:1005400083FB0121042000F07FFB4FF40070ADF825
:10055000180018208DF81B0003208DF81A00224D7A
:1005600006A9284600F0A8F82815ADF818000420C0
:100570008DF81B0006A9284600F09EF802A800F09E
:1005800041FF02940024ADF80C40ADF80E40ADF8E8
:1005900010400C20ADF81200ADF81440134D02A924
:1005A000284600F0C9FE25218DF8041001218DF8A0
:1005B00005108DF806108DF8071001A800F0AAF9B3
:1005C000012240F22551284600F09BFE012240F214
:1005D0002771284600F095FE0121284600F05EFEB6
:1005E0000348047007B030BD0008014000380140E6
:1005F0002600002070B50023002512E0B0F900604D
:100600008468A45DCC540488641C24B20480B0F9CE
:100610000460B44200DB05805B1C1BB2C488641E0E
:10062000C480B0F90640002C01DD9342E6DB184699
:1006300070BD704701B50348009901600168002949
:10064000FCD108BD3C000020F0B50023002512E0DD
:10065000B0F902708668CC5CF4554488641C24B2FE
:100660004480B0F90460B44200DB45805B1C1BB2DF
:10067000C488641CC480B0F90640B0F90460B44278
:1006800001DA9342E4DB1846F0BD000004490A6831
:1006900022F010020A600A6802430A6070470000F4
:1006A00000200240034A116801F038010143116043
:1006B00070470000002002402DE9F0410022CC7874
:1006C00004F00F03E40601D58C7823430C784FF037
:1006D0000F0714F0FF0F4FF0010C1CD005680CFA47
:1006E00002F40E882640A64211D1960007FA06F8B9
:1006F00025EA080503FA06F848EA0505CE78282E0B
:1007000002D0482E02D002E0446100E00461521C95
:10071000082AE4D305600A88FF2A1ED9456800220A
:1007200002F108060CFA06F40E882640A64210D103
:10073000960007FA06F825EA080503FA06F848EADB
:100740000505CE78282E00D14461CE78482E00D100
:100750000461521C082AE3D34560BDE8F0810246DB
:10076000002092680A4200D0012070474161704722
:1007700001617047002A01D00161704741617047F3
:1007800001484078704700002000002001480078B0
:100790007047000020000020FEE710B500F048FC84
:1007A00000F051F800F020F84FF4E13000F07DF84F
:1007B00000F06EF800F016F800F048F800F006F8C7
:1007C00000F030F8BDE8104000F010B810B5FFF7A9
:1007D00003FD0348002101704170817010BD0000CD
:1007E00017000020FFF724BDFFF74CBD70B5FFF7E1
:1007F0004DFD0B4D4FF4804421462846FFF7B6FFD0
:100800000A20FFF717FF21462846FFF7B1FF0A200D
:10081000FFF710FFFFF798FDBDE8704000F0B6B895
:10082000000C0140704710B5002303804380828094
:10083000C3808160002103E084686354491C09B2CD
:100840009142F9DB10BDFFF7E6BD70470E484FF44B
:100850007A710068B0FBF1F0B0F1807F01D3012024
:100860000DE020F07F414FF0E020491E4161074A32
:10087000F021117000218161072101610020002811
:1008800000D0FEE7704700004000002023ED00E0AC
:1008900010B540F2E73447212046FFF7ECFD204633
:1008A000BDE810404721FFF715BE10B5044600F023
:1008B00005F82046BDE81040FFF73CBE10B500200B
:1008C0000C4A002102F1640311541954401C00B277
:1008D0006428F9DB07496422A1F11800FFF7A3FFA0
:1008E000044964226431BDE81040A1F17000FFF7B3
:1008F0009ABF000090040020FEE7704700F01F023E
:10090000012191404009800000F1E020C0F88012F0
:100910007047000070B50F23C27801260178002AC5
:100920001ED0144A126802F4E062C2F5E062120AB4
:10093000C2F10404D3404578A54082781A402A4386
:10094000120101F1E02181F80024007800F01F017C
:100950008E404009800000F1E020C0F8006170BDC9
:1009600001F01F0086404809800000F1E020C0F837
:10097000806170BD0CED00E0024908430249086047
:10098000704700000000FA050CED00E030B40021D3
:10099000084B0022002003EBC0046254401CC0B28C
:1009A0008028F8D3491CC9B20829F3D330BC00F021
:1009B00021B800007600002010B57F2813D83F2909
:1009C00011D80723A3EBD103DBB201F00701C1F17A
:1009D00007040121A140C9B2054C04EBC0001AB1C3
:1009E000C25C0A43C25410BDC25C8A43C25410BDEB
:1009F0007600002070B500250F4E05F1B000C0B2A2
:100A0000002100F08DF80021084600F089F800214F
:100A1000102000F085F8002406EBC4000121405DA1
:100A200000F07EF8641CE4B2802CF5D36D1CEDB2AE
:100A3000082DE2D370BD0000760000202DE9F05FA4
:100A400083460D469846A946203A02F0FF0A002642
:100A500033E0B8F10C0F0CD01A4800EB0A10845D9B
:100A6000002720060CD5294658460A9AFFF7A4FF0E
:100A70000DE015490AEB4A0001EB8000845DEFE7C9
:100A80000A9890B1002229465846FFF795FF600664
:100A9000040E6D1CEDB2A5EB0900404507D14D4693
:100AA0000BF1010B0BF0FF0B05E00122EBE77F1CC4
:100AB000FFB2082FD5D3761CF6B24645C9D3BDE8A0
:100AC000F09F00009C1E0008281A0008F8B5044694
:100AD0000E4617461D461BE07A2C05D900240C2F24
:100AE0001AD010203044C6B23A2E03D9002426462C
:100AF000FFF74CFF012000902A783B463146204604
:100B0000FFF79CFF0C2F09D008202044C4B26D1CB5
:100B100028780028E0D1F8BD0C20E3E70620F4E7B0
:100B20002DE9F0470546DFF87C80002902D0012935
:100B300005D008E008214046FFF718FE03E0082131
:100B40004046FFF715FE184F4FF480594946384686
:100B5000FFF70CFE00244FF4004A7E14314638465D
:100B6000FFF704FE280604D551463846FFF700FE7D
:100B700003E051463846FFF7F9FD31463846FFF7A6
:100B8000F7FD6806050E641C24B2082CE6DB494616
:100B90003846FFF7EDFD4046BDE8F0470821FFF776
:100BA000E7BD000000100140000C0140704710B587
:100BB000FFF7E6FD002803D0BDE81040FFF700BBBB
:100BC00010BD10B5FFF7E2FD00280AD0002000F0AC
:100BD00009FE00F08BFEFFF70DFFBDE81040FFF7A8
:100BE000F5BA10BD704770477047000010B5FFF7A9
:100BF000CDFE0649087830B100200870BDE81040ED
:100C000003A000F015BC0120F7E700000000002061
:100C10006861686168610A00704770477047C08802
:100C2000002801D00020704701207047054A0029A4
:100C300003D0D1690143D1617047D1698143D1614A
:100C40007047000000100240054A002903D0916956
:100C50000143916170479169814391617047000040
:100C6000001002400C48016841F001010160416838
:100C70000A4A114041600168094A11400160016857
:100C800021F480210160416821F4FE0141604FF4AC
:100C90001F01816070470000001002400000FFF853
:100CA000FFFFF6FE10B5264A516801F00C01254BF6
:100CB000002927D0042927D0082927D003605168AC
:100CC00001F0F0010909204B5C5C0168E1404160E2
:100CD000546804F4E064240A1C5D21FA04F484607E
:100CE000546804F46054E40A1B5DD940C160526842
:100CF00002F44042920B144B1B1F9A5CB1FBF2F1C1
:100D0000016110BD0360DAE70360D8E7516801F4C0
:100D10007011536803F48033022404EB914133B122
:100D200053689B0307D5094B59430160C7E7074B3D
:100D300059430160C3E7034B59430160BFE700001B
:100D40000010024000127A002B00002000093D0034
:100D5000034600205909094A01290AD002290AD06C
:100D6000516A03F01F02012393400B4200D001207F
:100D700070471168F5E7116AF3E7000000100240C0
:100D80000248406800F00C0070470000001002406C
:100D9000034A516821F0F00101435160704700009F
:100DA000001002400C490A6822F480320A600A6886
:100DB00022F480220A60B0F5803F07D0B0F5802F82
:100DC00003D1086840F4A02008607047086840F428
:100DD000803008607047000000100240034A5168EC
:100DE00021F4E061014351607047000000100240AF
:100DF000034A516821F4605141EAC00050607047D5
:100E0000001002400149086670470000000042429D
:100E1000034B5A6822F47C12084310435860704711
:100E200000100240034A516821F003010143516060
:100E3000704700000010024018B5002000904FF4E9
:100E4000A0643120FFF784FF0099491C00910099AC
:100E5000A14201D00028F4D03120FFF779FF08B17A
:100E6000012018BD002018BD10B50146012202481E
:100E7000FFF7C0FBC0B210BD78040020704700002F
:100E80002DE9FF5F044690469946304D285D4000AD
:100E900028552F48002C04D0012C09D0022C15D144
:100EA0000DE00221FFF75BFC2978084328700DE074
:100EB0000421FFF754FC69780843687006E00121BB
:100EC0002448FFF74CFCA9780843A870DFF87CB0F1
:100ED000285D0BF1090B0BF103071BF8041000262A
:100EE000A7F1060A884213D137F814004FF6FF71B4
:100EF00088420DD21AF80410012909D1401C80B291
:100F000027F81400142803D92046C8470AF80460BB
:100F1000285D0E4D1BF80410ED1C884202D12A5D9D
:100F2000012A10D0C943C9B288420AD1285D0028DD
:100F300007D1019880470120285527F814600AF846
:100F40000400BDE8FF9FC0472E55FAE70E000020C1
:100F5000001001400008014010B5064CC1B2204607
:100F600000F04CFA4021204600F0A4F90028F9D006
:100F700010BD000000380140AFF300800CB5002226
:100F8000019200922748016841F4803101604FF4DA
:100F9000A063016801F4003100910199491C01919D
:100FA000009911B901999942F3D10168890302D5D9
:100FB0000121009100E000920099012930D11A49E5
:100FC0000A6842F010020A600A6822F003020A600E
:100FD0000A6842F002020A6041684160416841606B
:100FE000416841F480614160416821F47C114160B5
:100FF000416841F4E8114160016841F0807101608D
:1010000001688901FCD5416821F003014160416814
:1010100041F0020141604168C1F381010229FAD126
:101020000CBD0000001002400020024000F0D4B8C7
:1010300010B50F48016841F00101016041680D4A97
:101040001140416001680C4A11400160016821F4BF
:1010500080210160416821F4FE0141604FF41F01CD
:101060008160FFF789FF05494FF00060086010BDFF
:10107000001002400000FFF8FFFFF6FE08ED00E060
:1010800010B501218C07204600F041F8012803D15A
:101090000121204600F02CF805494888401C80B208
:1010A0004880022803D3002048800120087010BD2A
:1010B0002000002010B50C4C0121204600F027F83C
:1010C000012803D10121204600F012F80749888841
:1010D000401C00B28880B0F57A7F03DB0020888056
:1010E0000120487010BD0000000C004020000020CE
:1010F000C94301827047002904D0018841F00101F1
:1011000001807047018821F001010180704702468B
:101110000020138A0B4092890A40002B02D0002A3B
:1011200000D001207047002A03D082890A438281BF
:10113000704782898A4382817047000030B50288F7
:101140001B4C1C4DA0420DD0A8420BD0B0F1804FDB
:1011500008D0194B984205D0184B984202D0184B32
:10116000984203D122F070034A881A43154B9842E3
:1011700006D0154B984203D022F44073CA881A4314
:1011800002808A8882850A880285A0420AD0A84205
:1011900008D00E4A904205D00D4A904202D00D4A26
:1011A000904201D1097A01860121818230BD00007F
:1011B000002C0140003401400004004000080040C1
:1011C000000C0040001000400014004000400140AE
:1011D000004401400048014003480168002902D052
:1011E0000168491E016070473C000020F8B50024EA
:1011F0000094214D40F22551284600F062F848B194
:101200002520FFF77BFB284600F0F4F8C0B20090E1
:1012100000F004F90821284600F04CF8012806D116
:101220000821284600F02EF8284600F0E3F840F2A6
:1012300027763146284600F044F800281AD0314677
:10124000284600F023F82520FFF758FB6846FFF7F3
:101250000BFE9DF80010284600F0D0F80748FFF775
:10126000DEFC002806D006480470002231462846DD
:1012700000F047F8F8BD0000003801407804002075
:10128000260000208A05C9430180704740F66A1293
:101290000A0A01219140C94301807047002904D006
:1012A000818941F4005181817047818921F4005185
:1012B000818170470246002012880A4200D0012036
:1012C000704770B5002440F66A12C1F3421301F072
:1012D0001F05012606FA05F2012B0CD0022B0DD0BA
:1012E000838A1340090A8E40008830400BB100B158
:1012F0000124204670BD83891340F3E7038A13401D
:10130000F0E710B540F66A13C1F3421301F01F0471
:101310000121A140012B07D0022B07D014303AB194
:1013200002680A43026010BD0C30F8E71030F6E79F
:1013300002688A43026010BD30B585B004460D4690
:10134000208A4CF6FF710840E98801432182A08978
:101350004EF6F3110840A9882A8911436A8902438D
:101360001143A181A08A4FF6FF410840A98901439A
:10137000A1826846FFF796FC1D48844201D103987C
:1013800000E00298A189090408D500EBC00101EB37
:10139000001029684900B0FBF1F007E000EBC00144
:1013A00001EB001029688900B0FBF1F06422B0FB6A
:1013B000F2F109010B096FF018056B4300EB830094
:1013C000A3891D044FF0320307D503EBC000B0FB27
:1013D000F2F000F00700084306E003EB0010B0FB5A
:1013E000F2F000F00F000843208105B030BD00008E
:1013F000003801408088C0F308007047C1F308013D
:10140000818070474FF41651016000218180C180B6
:1014100001810C22428181817047FEE701B50122E2
:1014200069460248FFF710F9C0B208BD84040020E5
:101430000FB4054B10B503A9044A029800F02CF82C
:1014400010BC5DF814FB00007D180008540000205B
:101450000FB4084B10B504A902AA039800F01CF8B9
:10146000044602A9002000F0B8F9204610BC5DF83F
:1014700014FB0000DB17000802E008C8121F08C1B7
:10148000002AFAD170477047002001E001C1121F05
:10149000002AFBD1704700002DE9FF4F8BB0884632
:1014A0000546002606E025280BD0DDE90D12904701
:1014B0006D1C761C28780028F5D10FB03046BDE8A9
:1014C000F08F0024A146A2460122AE4900E0044369
:1014D00015F8013F203B02FA03F00842F7D12878C3
:1014E0002A2810D06FF02F022878A0F130010929A6
:1014F00015D809EB890102EB410144F0020400EB2D
:1015000001096D1CF0E758F8041B5FEA010903D5D7
:1015100044F40054C9F1000944F002046D1C287819
:101520002E2817D115F8010F44F004042A280ED0F4
:101530006FF02F022878A0F1300109290AD80AEBB0
:101540008A0102EB410100EB010A6D1CF2E758F839
:1015500004AB6D1C28786C280FD006DC4C2817D003
:1015600068280DD06A2814D104E0742810D07A2895
:101570000FD10DE044F400140AE044F4801401E0BB
:1015800044F440146978814202D104F580146D1C42
:101590006D1C2878692865D006DC00288DD063286A
:1015A00027D0642806D15DE06E2808D073282AD0A1
:1015B000752877D0DDE90D129047761CE0E0C4F382
:1015C0000250022809D003280DD0D8F800100428B2
:1015D0000DD00E6008F10408D2E0D8F80010F21720
:1015E000C1E90062F6E7D8F800100E80F2E70E704D
:1015F000F0E718F8041B8DF8001000208DF80100AA
:10160000EB46012003E058F804BB4FF0FF306107C0
:101610004FF0000701D40AE07F1C57450DDA8742DE
:10162000FADB1BF807100029F6D106E07F1C874281
:10163000FCDB1BF807100029F8D1DDE90D23A9EB2D
:1016400007008146214600F0B1F83044C61904E095
:10165000DDE90D121BF8010B90477F1EF8D22146E1
:10166000484688E058F8040BC4F302514FF00A0BC7
:10167000032900D100B2042900D140B2002802DAC7
:1016800040422D2102E0210505D52B218DF82410A3
:10169000012104E006E0E10710D02021F6E708AFC1
:1016A000089113E058F8040BC4F302514FF00A0BF1
:1016B000032900D180B2042900D1C0B20021EEE795
:1016C0005946FEF753FD303107F8011D0028F7D1C8
:1016D000ADEB070000F1200B600702D524F4803445
:1016E00001E04FF0010ADA4502DDAAEB0B0000E051
:1016F0000020824600EB0B0108980144A9EB010091
:101700000A90E00306D4DDE90D2321460A9800F093
:101710004DF806444FF0000908E009A911F8090046
:10172000DDE90D12904709F10109761C08998945F8
:10173000F3DBE0030CD5DDE90D2321460A9800F028
:1017400035F8064404E0DDE90D1230209047761CA0
:10175000BAF10001AAF1010AF5DC05E0DDE90D129C
:1017600017F8010B9047761CBBF10001ABF1010BA0
:10177000F4DC0A982146DDE90D2300F005F8064463
:101780006D1C97E6092801002DE9F041044600256B
:101790001E461746880404D405E039462020B04789
:1017A0006D1C641EF9D52846BDE8F0812DE9F04195
:1017B000044600251E469046C80301D5302700E0A8
:1017C0002027880404D505E041463846B0476D1C03
:1017D000641EF9D52846BDE8F0810A68531C0B60E9
:1017E0001070704710B524498A89521C92B28A81C0
:1017F000824240D9002088814A783B2A03D2487827
:10180000401C487031E048708A783B2A03D28878BF
:10181000401C887029E08870CA78172A03D2C878DB
:10182000401CC87021E0C870887048704A891E2A20
:1018300003D24889401C488117E048810A890B2A55
:1018400003D20889401C08810FE00881CA8842F24F
:101850000F739A4203D2C888401CC88005E04870C4
:101860008870C87048810881C88000F027F8BDE8FA
:10187000104000F00BB810BD0000002010B5044669
:10188000E0B2FFF769FB204610BD000008B505482F
:10189000418900910389C28803A10748FFF7D8FD59
:1018A00008BD000000000020253034642D253032B2
:1018B000642D2530326400006200002008B5054820
:1018C000417800918378C27803A10748FFF7C0FDF3
:1018D00008BD000000000020253032642D25303284
:1018E000642D2530326400005800002010B50E48E9
:1018F0000179002915D0002101710C4B0C4A0D49CA
:101900000020FFF7BDFA094B0B4A0C490120FFF7F5
:10191000B7FABDE81040054B094A0A490220FFF713
:10192000AFBA0121017110BD00000020ED0B0008CD
:10193000E50B0008190C0008E70B00081B0C000859
:10194000E90B00081D0C0008FEF77FFFFEF725FFDE
:1019500009A0FFF76DFD114C207810B1012805D1C9
:1019600002E000F01DF801E000F038F8FFF729F977
:10197000FFF71DF9F0E70000496E69742053797391
:1019800074656D20686173206265656E2066696E9E
:1019900069736865642E0D0A0000000000000020D5
:1019A00010B50A4B10220D211820FFF78FF8074BB6
:1019B00010220A3B1D212020FFF788F80C22342139
:1019C000BDE8104002A32820FFF780B86200002085
:1019D00053657474696E67733E00000010B5002192
:1019E00009A30C220846FFF771F80BA3102212215D
:1019F0001820FFF76BF810222421BDE81040094B96
:101A00002020FFF763B800003C2053657474696EB2
:101A100067204D6F64650000323031382D30312D34
:101A200030310000580000200000000000000000DD
:101A300000000000000000003F4000000000000027
:101A400000003000400030004000000009000BC0E2
:101A50003D000BC03D00090018C024407FE022403B
:101A600031800000180024C01B000D80324001802E
:101A700003801C4027401C8007400040100060008D
:101A800000000000000000000000000000001F80B7
:101A9000204040200000402020401F800000000027
:101AA000090006001F800600090000000400040071
:101AB0003F800400040000000010006000000000EF
:101AC0000000000004000400040004000400000002
:101AD000000000400000000000000000002001C0E5
:101AE00006003800400000001F80204020402040B9
:101AF0001F800000000010403FC0004000000000B8
:101B000018C021402240244018400000108020408E
:101B1000244024401B80000002000D0011003FC043
:101B2000014000003C8024402440244023800000E9
:101B30001F802440244034400380000030002000F7
:101B400027C03800200000001B802440244024408F
:101B50001B8000001C0022C0224022401F80000089
:101B6000000000000840000000000000000000002D
:101B70000460000000000000000004000A001100E2
:101B80002080404009000900090009000900000008
:101B900000004040208011000A00040018002000CE
:101BA00023402400180000001F80204027402940C7
:101BB0001F400000004007C039000F0001C0004076
:101BC00020403FC0244024401B8000001F80204054
:101BD000204020403080000020403FC02040204076
:101BE0001F80000020403FC024402E4030C0000035
:101BF00020403FC024402E00300000000F00108025
:101C0000204022403380020020403FC004000400F6
:101C10003FC02040204020403FC0204020400000E6
:101C20000060202020203FC02000200020403FC036
:101C300024400B0030C0204020403FC020400040E6
:101C4000004000C03FC03C0003C03C003FC000005B
:101C500020403FC00C4023003FC020001F80204098
:101C6000204020401F80000020403FC0244024002E
:101C7000180000001F802140214020E01FA000002C
:101C800020403FC02440260019C0004018C0244016
:101C90002440224031800000300020403FC02040DE
:101CA0003000000020003F80004000403F802000C6
:101CB00020003E0001C0070038002000380007C0A7
:101CC0003C0007C038000000204039C0060039C081
:101CD000204000002000384007C0384020000000AD
:101CE000304021C02640384020C0000000000000E5
:101CF0007FE0402040200000000070000C000380C6
:101D0000004000000000402040207FE00000000074
:101D10000000200040002000000000000010001023
:101D20000010001000100010000000004000000033
:101D300000000000000002800540054003C0004094
:101D400020003FC0044004400380000000000380E6
:101D5000044004400640000000000380044024408A
:101D60003FC00040000003800540054003400000E4
:101D7000000004401FC0244024402000000002E076
:101D8000055005500650042020403FC00440040088
:101D900003C000400000044027C0004000000000D5
:101DA00000100010041027E00000000020403FC099
:101DB0000140070004C00440204020403FC00040D4
:101DC0000040000007C0040007C0040003C000007A
:101DD000044007C00440040003C00040000003802A
:101DE0000440044003800000041007F00450044045
:101DF00003800000000003800440045007F000103E
:101E0000044007C002400400040000000000064037
:101E10000540054004C00000000004001F8004408D
:101E200000400000040007800040044007C000405C
:101E30000400070004C0018006000400060001C081
:101E4000070001C006000000044006C0010006C0F3
:101E5000044000000410071004E0018006000400A4
:101E60000000044005C006400440000000000000DF
:101E700004007BE040200000000000000000FFF0B4
:101E800000000000000040207BE004000000000093
:101E900040008000400020002000400000000000C2
:101EA0000000000000000000000000000000000032
:101EB00000001FCC000C0000000000000000080023
:101EC000300060000800300060000000022003FCC9
:101ED0001E20022003FC1E200220000000000E181D
:101EE00011043FFF10840C78000000000F001084E4
:101EF0000F3800C0077818840078000000780F843D
:101F000010C411240E9800E4008400080800680042
:101F10007000000000000000000000000000000051
:101F2000000007E0181820044002000000004002F2
:101F30002004181807E000000000000002400240E2
:101F400001800FF00180024002400000008000800C
:101F500000800FF800800080008000000001000D6C
:101F6000000E0000000000000000000000000080E3
:101F70000080008000800080008000800000000C55
:101F8000000C00000000000000000000000000063F
:101F9000001800600180060018002000000007F013
:101FA000080810041004080807F0000000000804E6
:101FB00008041FFC000400040000000000000E0CD8
:101FC00010141024104411840E0C000000000C1892
:101FD00010041104110412880C700000000000E0CD
:101FE0000320042408241FFC0024000000001F9884
:101FF000108411041104108810700000000007F014
:1020000008881104110418880070000000001C00EA
:10201000100010FC13001C001000000000000E381F
:1020200011441084108411440E3800000000070091
:10203000088C10441044088807F0000000000000DD
:102040000000030C030C0000000000000000000072
:1020500000010106000000000000000000000080F8
:102060000140022004100808100400000220022091
:1020700002200220022002200220000000001004A2
:1020800008080410022001400080000000000E003B
:102090001200100C106C10800F00000003E00C18F0
:1020A00013E4142417C4082807D000000004003CDF
:1020B00003C41C40074000E4001C000410041FFC83
:1020C0001104110411040E880070000003E00C18C4
:1020D00010041004100410081C10000010041FFC51
:1020E000100410041004080807F0000010041FFC7E
:1020F0001104110417C410040818000010041FFC78
:102100001104110017C010000800000003E00C18B3
:102110001004100410441C780040000010041FFC40
:1021200010840080008010841FFC10040000100444
:1021300010041FFC10041004000000000003000144
:10214000100110011FFE10001000000010041FFC01
:10215000110403801464181C1004000010041FFCF8
:102160001004000400040004000C000010041FFC14
:102170001F0000FC1F001FFC1004000010041FFCC7
:102180000C04030000E010181FFC100007F0080802
:10219000100410041004080807F0000010041FFCCD
:1021A00010841080108010800F00000007F00818C5
:1021B00010241024101C080A07F2000010041FFC51
:1021C0001104110011C011300E0C000400000E1C8F
:1021D00011041084108410441C38000018001000F2
:1021E00010041FFC100410001800000010001FF85D
:1021F00010040004000410041FF8100010001E005A
:1022000011E0001C007013801C0010001FC0103C67
:1022100000E01F0000E0103C1FC000001004180C7C
:10222000163401C001C01634180C100410001C0034
:10223000130400FC13041C00100000000804101C10
:102240001064108413041C04101800000000000027
:1022500000007FFE4002400240020000000030000B
:102260000C0003800060001C00030000000040021E
:10227000400240027FFE000000000000000000005D
:10228000200040004000400020000000000100014C
:1022900000010001000100010001000100004000F8
:1022A0004000200000000000000000000000009836
:1022B000012401440144014400FC000410001FFCFF
:1022C0000088010401040088007000000000007014
:1022D000008801040104010400880000000000706F
:1022E00000880104010411081FFC0004000000F82C
:1022F000014401440144014400C8000000000104FD
:1023000001040FFC1104110411001800000000D694
:1023100001290129012901C90106000010041FFC3F
:10232000008401000100010400FC0004000001041D
:10233000190419FC00040004000000000000000360
:1023400000010101190119FE0000000010041FFC2A
:102350000024004001B4010C01040000000010043E
:1023600010041FFC0004000400000000010401FC34
:102370000104010001FC0104010000FC010401FC56
:10238000008401000100010400FC0004000000F8CA
:10239000010401040104010400F80000010101FF2F
:1023A0000085010401040088007000000000007036
:1023B000008801040104010501FF0001010401047A
:1023C00001FC00840104010001800000000000CC39
:1023D00001240124012401240198000000000100CF
:1023E000010007F80104010400000000010001F8E9
:1023F000000400040004010801FC00040100018045
:102400000170000C001001600180010001F0010C5E
:10241000003001C00030010C01F001000000010497
:10242000018C00740170018C010400000101018124
:102430000171000E0018016001800100000001849C
:10244000010C013401440184010C00000000000073
:102450000000000001003EFC4002400200000000BD
:1024600000000000FFFF000000000000000040022C
:1024700040023EFC0100000000000000000060007F
:10248000800080004000400020002000AC240008B4
:1024900000000020580000007814000804250008FF
:1024A00058000020000900008814000800283A178E
:1024B0000000E60706001500000000000000000014
:1024C000000000000000000000000000000000000C
:1024D00000000002040608000000000102030401DD
:1024E00002030406070809000000000000A24A04D5
:1024F00000000000000000000102030406070809B4
:0425000000000000D7
:0400000508000131BD
:00000001FF
